:020000040800F2
:10000000E0110020D90100085B2E00088D2A0008AD
:10001000592E0008650A00082D4000080000000065
:100020000000000000000000000000002533000870
:100030002B0C0008000000003932000829380008A5
:10004000F3010008F3010008F3010008F3010008C0
:10005000F3010008F3010008F3010008F3010008B0
:10006000F3010008F3010008F3010008910B0008F8
:10007000F3010008F3010008F3010008F301000890
:10008000F3010008F301000815090008F301000856
:10009000F3010008F3010008F3010008F301000870
:1000A000F3010008F3010008F3010008F301000860
:1000B000F3010008F3010008F3010008F301000850
:1000C000F3010008F3010008F3010008F301000840
:1000D000F301000821400008F3010008F3010008C3
:1000E000F3010008F3010008F301000800F002F832
:1000F00000F063F80AA090E8000C82448344AAF15F
:100100000107DA4501D100F058F8AFF2090EBAE85C
:100110000F0013F0010F18BFFB1A43F0010318473B
:1001200030440000504400000A444FF0000C10F826
:10013000013B13F0070408BF10F8014B1D1108BF65
:1001400010F8015B641E05D010F8016B641E01F805
:10015000016BF9D113F0080F1EBF10F8014BAD1C55
:100160000C1B09D16D1E58BF01F801CBFAD505E073
:1001700014F8016B01F8016B6D1EF9D59142D6D3CD
:10018000704700000023002400250026103A28BFF5
:1001900078C1FBD8520728BF30C148BF0B607047F9
:1001A0001FB500F06BFB04000020002104F056F89E
:1001B000401C60601FBD10B510BD00F023FB114650
:1001C000FFF7EEFF03F08AFF00F04AFB03B4FFF7EE
:1001D000F2FF03BC00F096FB09488047094800473E
:1001E000FEE7FEE7FEE7FEE7FEE7FEE7FEE7FEE7E7
:1001F000FEE7FEE704480549054A064B7047000044
:10020000A5380008ED000008E00B0020E0110020F8
:10021000E00D0020E00D00200FB400B58DB010A956
:10022000099000910B904FF0FF300A9000200C9045
:10023000064878440690064878446A4607900F9925
:1002400009A800F0EBF80DB05DF814FB0702000000
:100250001F0200002DE9FF5F1D464FF0FF3B914656
:100260004FF000085F46D5E90146A96901987F1C57
:100270008847296A824688470028F6D1BAF1FF3FAD
:100280000CD0002E24F4C06419DD600614D5BAF138
:100290002B0F09D0BAF12D0F0ED103E0584604B050
:1002A000BDE8F09F44F48064A96901987F1C8847E9
:1002B000761E8246002E02DDBAF1300F03D0B9F16E
:1002C000000F26D032E0A969761E01987F1C44F405
:1002D00000748847002E824605DDBAF1780F06D0FB
:1002E000BAF1580F03D0B9F1000F10D01EE0B9F1E8
:1002F000000F02D0B9F1100F18D1A969761E01982C
:100300007F1C24F4007488478246102002E00820F5
:1003100000E00A20814609E0A96908FB0908761E69
:1003200001987F1C44F4007488478246002E05DD46
:100330004946504600F05EF80028EDDAE969019878
:100340008847A00502D46FF00100A8E7E00725D197
:10035000600613D5600502D5C8F1000000E04046F4
:1003600029680A1D2A600968220501D5087015E070
:10037000220701D5088011E008600FE02868011D00
:1003800029600068210502D580F8008006E0210779
:1003900002D5A0F8008001E0C0F8008038467EE772
:1003A0004FF0000200B5134694469646203922BF0E
:1003B000A0E80C50A0E80C50B1F12001BFF4F7AF59
:1003C000090728BFA0E80C5048BF0CC05DF804EB3B
:1003D000890028BF40F8042B08BF704748BF20F8A9
:1003E000022B11F0804F18BF00F8012B70477047A7
:1003F000704770473A2800D2303820F02002412A56
:1004000001D3A2F13700884201D34FF0FF3070478B
:10041000026811441378016018467047D16005499D
:1004200079445161044979441162002111611146F6
:1004300000F02EB8EDFFFFFF53000000426842B10C
:10044000016811F8013B23B1521EC0E900121846A1
:1004500070470121C160881E704742685AB1C36865
:10046000016843B983688B4205D0491E521CC0E91C
:100470000012002070474FF0FF30704710B504465F
:1004800000F0E6F90068005D00F0010010BD00001A
:100490002DE9F34F4FF0000A0C4656468DB001206F
:1004A0000C9001F10C000B9062690B9801219047B0
:1004B000051E2DD0252D2CD0216A8847C0B1626938
:1004C0000B9801219047216A88470028F7D162697B
:1004D000411E0B98904700E0761CA1690D98884753
:1004E000216A88470028F7D1E1690D988847DBE742
:1004F000A1690D988847A842074601D1761CD3E729
:10050000E1690D9888477F1C02D1BAF1000F6FD0C6
:100510006BE162690B9800273D46394690472A28CF
:1005200004D162690B98012190470125DFF8D08240
:1005300062690B9801219047A0F130010A290AD283
:100540004745E5DC07EB870100EB4107303FDFD48F
:1005500045F01005ECE7E90601D46FF000476C2880
:100560000AD04C2814D0682815D06A280DD07428D9
:100570001CD07A281AD01DE062690B98012190479F
:100580006C2802D045F0040514E045F002050DE0AA
:1005900045F020050AE062690B9801219047682820
:1005A00002D045F0080505E045F4006562690B9846
:1005B00001219047C4E9015765283DD019DC58282E
:1005C0007AD00CDC452837D004DC252826D04128F9
:1005D0009ED131E046282FD0472899D12CE05B28C6
:1005E00077D0612828D063287CD0642823D15AE0B2
:1005F000F6E06F2848D008DC66281DD067281BD09D
:10060000692821D06E2816D127E0702845D073289C
:1006100068D0752847D078280DD14DE0A1690D9894
:100620008847252805463FF469AFE1690D9888475A
:100630006D1C3FF46AAFD8E00D9923466A466FF00F
:100640000100AFF30080C5E045F0400023464FF0C5
:1006500000026060A80736D43EE0E8077FF447AFA9
:100660002068011D21600068290501D506701BE77F
:10067000290701D5068017E7A90703D5F117C0E9B7
:10068000006111E706600FE745F0400023464FF098
:1006900008026060A80716D41EE040F60E0125EAA5
:1006A0000100606016E045F0400023464FF00A026A
:1006B0006060A80707D40FE045F040006060A8071D
:1006C00008D5234610220D996FF00100AFF300808A
:1006D00080E007E0102223460D996FF00100FFF73C
:1006E000B9FD77E04FF0000963284F46C8464B46F6
:1006F000CB4602D05B2806D038E0E80601D40120C2
:10070000A060012732E06269D4F80CB00B98012197
:1007100090475E2807D14FF0010949466269D4F835
:100720000CB00B989047216939B900210A4603ABF8
:1007300043F82120491C0829FADBD8B3216949B3C1
:1007400008F1010862690B98012190475D28F4D1F6
:10075000B9F1000F09D0002003A951F82020D2439D
:1007600041F82020401C0828F7DB03AB2069002853
:1007700020794FEA40701ED05B462246CDF80080BB
:10078000CDE901970D9900286FF0010020DAAFF351
:1007900000801FE0C11703AA00EBD1614B1121F0CB
:1007A0001F0102EB8302411A1368012088400343B2
:1007B0001360C7E719E00D99224600286FF0010089
:1007C000009702DAAFF3008004E0AFF3008001E0AD
:1007D000AFF3008000280ADA401C06D10C9820B143
:1007E0004FF0FF300FB0BDE8F08F5046FAE7E90751
:1007F00001D10AF1010A064400200C9054E60000E1
:10080000CCCCCC0C754600F035F8AE4605006946F8
:10081000534620F00700854618B020B5FFF7EAFCE4
:10082000BDE820404FF000064FF000074FF00008F1
:100830004FF0000B21F00701AC46ACE8C009ACE872
:10084000C009ACE8C009ACE8C0098D46704700009B
:1008500010B500F013F8001D10BD00BF013A0000F4
:1008600010B50446AFF300802046BDE81040FFF706
:10087000ADBC0000004870477C0B0020004870476A
:100880009C0B00204FF0013C50F8042B51F8043B26
:100890009A4221D1A2EB0C03934313EACC1317D154
:1008A00050F8042B51F8043B9A4215D1A2EB0C03EB
:1008B000934313EACC130BD150F8042B51F8043BAB
:1008C0009A4209D1A2EB0C03934313EACC13DBD079
:1008D0004FF00000704700BFD01A01BAB1FA81F1A1
:1008E00001F0180122FA01F0CB40C1F12001DBB286
:1008F000C0B2C01A2CFA01F3D11A914311EAC31104
:10090000E6D1704701491820ABBEFEE72600020081
:1009100070470000014800F0E9BA00006C050020B3
:1009200070B5044600688168C943C90717D181685A
:1009300021F00101816001F0A1F805460AE000BF45
:1009400001F09CF8401B022804D920688068C0434D
:10095000C00706D020688068C043C007F0D00020E0
:1009600070BDA06A40F01000A062E06A40F0010093
:10097000E062012070BD10B50146406A826A12F043
:10098000500F05D0006A026BBDE8104008461047C2
:10099000816A41F40071816201688968C1F3424152
:1009A00007290CD1017B51B9816A21F480718162E0
:1009B000816AC90403D4816A41F00101816200F0B7
:1009C00077FA10BD10B5406A816A41F0400181623A
:1009D000C16A41F00401C16200F087FA10BD10B590
:1009E000406A00F081FA10BDF8B500260446009672
:1009F00000688168C943C9072DD0816841F00101B1
:100A00008160164816490068B0FBF1F000E0401E16
:100A100000900028FBD101F031F8054616E000BF38
:100A200001F02CF8401B022810D920688068C043D0
:100A3000C0070BD0A06A40F01000A062E06A40F04E
:100A40000100E06284F824600120F8BD206880681D
:100A5000C043C007E4D10020F8BD000028000020FA
:100A600040420F00FEE7000010B57D2835D009DCBC
:100A70000A282AD014282BD032282CD0642832D12E
:100A80003C2108E0FA282AD0B0F5FA7F29D0B0F549
:100A90007A7F28D106211548134AC0E90021002198
:100AA0004FF400328160C0E90312D2004261017646
:100AB00041768176C1760177417700F053FC0028BA
:100AC00011D0BDE8104000F0B1B84FF41671E2E764
:100AD0004FF49671DFE77821DDE73021DBE718215D
:100AE000D9E70C21D7E710BD00640040F8050020CD
:100AF00007B582B040F2FF73029A00210B489A4278
:100B000002D20260816002E0426004228260082218
:100B1000C0E90312017505496B4603AA01F11800EB
:100B200000F0BCFB05B0002000BD0000E005002087
:100B30002DE9F04105460E4617460A2407E03A46DD
:100B400031462846FFF7D4FF142000F087FE641ECC
:100B5000F5D2BDE8F081000010B5044600211D204B
:100B600001F0B0FF01211E2001F0ACFF00211F2089
:100B700001F0A8FF0021202001F0A4FF034830F875
:100B80001400BDE8104000F01EB80000680000200E
:100B9000014800F053BD00009C05002030B590F8DE
:100BA00040500124AC40C56B6C60046863604368CE
:100BB000102B036803D099600068C26030BD9A6052
:100BC0000068C16030BD0A21F8B5B0FBF1F201FB4D
:100BD00012028DF80020B0FBF1F2B2FBF1F301FB41
:100BE00013228DF801206422B0FBF2F0B0FBF1F289
:100BF00001FB12008DF8020000246E460025305DD6
:100C000040F3000105EB84001130C0B2491C01F033
:100C100059FF305D6D1C4008EDB23055042DEED308
:100C2000641CE4B2032CE9D3F8BD704772B6FEE74A
:100C300010B5044600211D2001F044FF00211E20B4
:100C400001F040FF00211F2001F03CFF0121202086
:100C500001F038FF034830F81400BDE81040FFF7FA
:100C6000B2BF00009000002010B5044601211D20F5
:100C700001F028FF00211E2001F024FF00211F2089
:100C800001F020FF0021202001F01CFF034830F874
:100C90001400BDE81040FFF796BF0000540000208C
:100CA00010B5044609211D2001F00CFF00211E2073
:100CB00001F008FF01211F2001F004FF0021202086
:100CC00001F000FF034830F81400BDE81040FFF7C2
:100CD0007ABF00007C000020F8B50025044600958E
:100CE00090F82400012808D0012084F82400204630
:100CF000FFF716FE060002D053E00220F8BDA06AFE
:100D000020F4885040F00200A062022000F04EFF64
:100D100026490968B1FBF0F0400000E0401E009059
:100D20000028FBD12046FFF75FFE2068816841F074
:100D30000801816000F0A2FE074608E000F09EFE78
:100D4000C01B0A2803D920688068000715D42068D2
:100D500080680007F2D42068816841F00401816056
:100D600000F08CFE074612E000F088FEC01B0A2847
:100D70000DD920688068400709D5A06A20F00200DC
:100D800040F01000A06284F824500120F8BD2068D3
:100D900080684007E8D4A06A20F0020040F001001B
:100DA000A06284F824503046F8BD000028000020DE
:100DB00070470000F8B50024009490F824202546E0
:100DC000012A12D0012280F824204A681F23072A12
:100DD0000DD20668776B521E02EB820293409F434E
:100DE0000B6893401F43776319E00220F8BD066843
:100DF0000D2A0AD2376BD21F02EB820293409F4327
:100E00000B6893401F43376309E0F76A0D3A02EB22
:100E1000820293409F430B6893401F43F7620A6826
:100E2000072306680A2A0AD3F7680A3A02EB420245
:100E300093409F438B6893401F43F76008E03769F6
:100E400002EB420293409F438B6893401F433761FC
:100E50000A68102A01D0112A20D1124B02689A4246
:100E600017D193681B0219D4936843F4000393606D
:100E70000968102912D10C490C4A0968B1FBF2F13A
:100E800001EB8101490000E0491E00910029FBD1DE
:100E900004E0816A41F020018162012480F824503D
:100EA0002046F8BD002401402800002040420F00E9
:100EB00010B50B4B0B49002053F8204051F820206F
:100EC000944202D902F1010202E007D2A2F101022A
:100ED00041F8202000F101000228EDDB10BD0000E8
:100EE00004000020100000207047704710B5044631
:100EF00000684168890626D50168890723D5A16A5B
:100F0000C90603D4A16A41F40071A1628168C1F3EA
:100F10004241072910D1217B71B9416821F020019C
:100F20004160A06A20F48070A062A06AC00403D46B
:100F3000A06A40F00100A0622046FFF7B9FF2168D7
:100F40006FF0120008602068416809062ED501681C
:100F500049072BD5A16AC90603D4A16A41F40051FF
:100F6000A1628168C1F30231072909D041684905AE
:100F700015D48168C1F34241072910D1217B71B991
:100F8000416821F080014160A06A20F48050A06295
:100F9000A06AC00503D4A06A40F00100A062204608
:100FA000FFF706FF21686FF00C00086020684168B9
:100FB00049060DD50068C0070AD0A06A40F4803009
:100FC000A062204600F094F821686FF001000860EC
:100FD00010BD00002DE9F0414FF0000704003D4630
:100FE0007ED0A06A002628B9E66284F824602046F4
:100FF00000F080F82046FFF793FCA16AC90600D4F0
:1010000020B1A06A40F01000A06269E0A16A21F45A
:10101000885141F00201A1626268E169237B0A43C1
:1010200047EA43010A43A1684FF48077B94209D0E7
:10103000012907D05FF0000194F814C0BCF1010F42
:1010400002D00AE03946F7E7F3B1A36A43F0200380
:10105000A362E36A43F00103E3622368D3F804C0A8
:101060002CF4694C4CEA010CC3F804C021688B686D
:10107000DFF870C003EA0C0313438B60A168B94228
:101080000BD0012909D00CE0DFF85CC0A3690CEBA0
:1010900043330B4343F40061DFE7218A0D05A5F5D7
:1010A00080152168CB6A23F470032B43CB6221683F
:1010B00089680E4B1940914208D1E662A16A21F07D
:1010C000020141F00101A162BDE8F081A06A20F0B7
:1010D000020040F01000A062E06A40F00100E0620F
:1010E0000120F1E7FDF7E1FF00E0FFFFFE0E1FFF2B
:1010F0007047000070B586B0002506460095019542
:101100000295039500681D49884235D11C498869BC
:1011100040F400708861886900F400700490886968
:1011200040F0040088618869694600F0040004907A
:10113000032000900190134800F0A2FB134C1248CA
:10114000C4E900058020C4E90250800020618000CD
:1011500060612020C4E90605204600F019FB08B1B3
:10116000FFF764FD3462002202211220666200F063
:10117000EBFC122000F0DAFC06B070BD0024014048
:101180000010024000080140080002409C050020B9
:101190002DE9F047894604463B4900683B4F0E1D48
:1011A0009046884201D0B84207D1306810F4702FC1
:1011B00003D001252846BDE8F08794F824000128D3
:1011C0000CD0012084F824002046FFF70DFC050018
:1011D0004FF0000004D084F82400EBE70220EAE797
:1011E000A16A40F60162914341F48071A1622168D5
:1011F000B94218D1326812F4702F14D0A16A41F4A8
:101200008011A1623168490505D5A16A21F4005118
:1012100041F48051A162A16AC9040AD5E16A21F0B2
:101220000601E16206E0A26A22F48012A262496825
:10123000E9E7E06284F82400216A15488862216A9F
:101240001448C862216A1448086321686FF00200DC
:1012500008602068816841F480718160216843469C
:101260004A464C31206A00F0C1FA20688168C1F317
:1012700042410729816803D041F48011816099E7D8
:1012800041F4A001FAE700000024014000280140D9
:1012900077090008DF090008C5090008F0B590F8D3
:1012A00020500468A468012D05D0022D03D0416AA6
:1012B00041F4802153E014F0406F01D1E5004BD59B
:1012C000C4F30164022C03D9416A41F4000146E0F1
:1012D0000125A5401D608D684FF4C0739DB1CE6897
:1012E00035434E6845EAC605066803EB0417F55119
:1012F0004FF4C275076805EB04150E697E51097D30
:10130000012905D009E00E88CD6845EA4655EBE78E
:1013100001684E5946F480764E511179D2F8055045
:101320004FF4C67641EA0525016806EB04168D5197
:101330001178D2F801204FF4C47541EA0221026805
:1013400005EB04155151006803EB0411425842F0BB
:10135000010242500020F0BD416A41F40011416297
:101360000120F0BD70B5040003D094F8200010B146
:1013700004E0012070BD204600F082F8206801687A
:1013800041F00101016000F079FB0546052604E00B
:1013900000F074FB401B0A2811D820684068C00781
:1013A000F6D02068016821F00201016000F066FBC0
:1013B00005460BE000F062FB401B0A2806D9606A74
:1013C00040F40030606284F82060D2E72068406812
:1013D0008007EFD4207E0128206801683DD021F0ED
:1013E00080010160607E01282068016838D021F00A
:1013F00040010160A07E01282068016833D021F0FF
:1014000020010160E07E0128206801682ED041F0B3
:1014100010010160207F01282068016829D021F097
:1014200008010160607F01282068016824D021F054
:1014300004010160D4E902010843D4E90412114314
:1014400008436168491E08432168C8610020606242
:10145000012084F82000002070BD41F08001C0E729
:1014600041F04001C5E741F02001CAE721F0100139
:10147000CFE741F00801D4E741F00401D9E70000CB
:1014800010B586B00021009101910291039100688E
:10149000184988422BD11848C16941F00071C161D7
:1014A000C16901F000710491816941F00801816115
:1014B0008069124C00F0080004904FF48070009096
:1014C0006946204600F0DCF960150090022001908A
:1014D000032003906946204600F0D2F9084841688D
:1014E00021F4C04141F0E06141F48041416006B027
:1014F00010BD00000064004000100240000C0140DC
:101500000000014070B5044690F82000012804D086
:10151000606A40F40020606218E0022084F8200035
:101520002068016821F00101016000F0A7FA05467A
:101530000EE000BF00F0A2FA401B0A2808D9606A3A
:1015400040F400306062052084F82000012070BD66
:1015500020684068C007EDD1606270BD10B590F89A
:1015600021100022022905D00421816380F8202067
:10157000012010BD01680B6823F00E030B600168A9
:101580000B6823F001030B6090F84030C46B01211D
:1015900001FA03F3636080F8211080F820201046E0
:1015A00010BD000010B590F821100024022903D0CE
:1015B0000421816301243DE001680A6822F00E02E3
:1015C0000A6001680A6822F001020A601A4A01688A
:1015D000914201D1012121E0174A1432914201D1F7
:1015E00010211BE0144A2832914201D1891515E0DF
:1015F000114A3C32914201D189140FE00E4A503217
:10160000914202D14FF4803108E00B4A643291429A
:1016100002D14FF4801101E04FF08071064A083A80
:101620005160012180F82110002180F82010416BC9
:1016300001B18847204610BD080002402DE9F05F47
:10164000C16B0C6801680B68D0F840C0042202FA34
:101650000CF2494DDFF824A1494E4A4FDFF828B17A
:10166000DFF828E122422CD05A072AD50A689206D0
:1016700003D40A6822F004020A600168A94201D179
:10168000042219E0514501D1402215E0B14202D1B6
:101690004FF4806210E0B94202D14FF480420BE077
:1016A000594502D14FF4802206E0714502D14FF432
:1016B000800201E04FF080622F4908394A60C16A18
:1016C0003BE04FF0020808FA0CF818EA040F4FF05C
:1016D00000094FF0010235D05FEA837832D50B68FC
:1016E0009B0605D40B6823F00A030B6080F82120C9
:1016F0000168A94201D1022219E0514501D12022FD
:1017000015E0B14202D14FF4007210E0B94202D1AB
:101710004FF400520BE0594502D14FF4003206E07D
:10172000714502D14FF4001201E04FF000721249EE
:1017300008394A6080F82090816A00291AD0BDE8F3
:10174000F05F0847082505FA0CF5254212D01B0763
:1017500010D50B6823F00E030B6090F84010C36B9C
:1017600002FA01F15960826380F8212080F820900C
:10177000016BE2E7BDE8F09F080002401C00024058
:101780003000024044000240580002406C00024019
:1017900030B528B308C8134914221944B1FBF2F13B
:1017A0008900C16310498163022141771A6843F6B9
:1017B000F0718A43D0E900142143D0E902452C435B
:1017C000214304692143446921438469214311432E
:1017D000196000214163012242770177084630BD3C
:1017E000012030BDF8FFFDBF0000024070B5044687
:1017F00090F82000002501280CD0012084F820005A
:1018000094F821600020012E06D084F820000225E3
:10181000284670BD022070BD022684F82160A063B6
:101820002068066826F0010606602046FFF7B6F934
:10183000E06A00282068016802D041F00E0106E04D
:1018400021F0040101602068016841F00A01016093
:101850002068016841F001010160D9E770B50446D4
:1018600000F00CF90546601C02D0044800780444DE
:1018700000F004F9401BA042FAD370BD1C00002008
:101880002DE9F84FDFF8B891002409F1040A0AF1B4
:10189000040B23460F270BF1040EC9E00125A540D8
:1018A0002A40AA427DD1674ED1F804C0ACEB0608AD
:1018B000B44532D014DCBCF1030F3AD009DCBCF1E2
:1018C000000F2AD0BCF1010F1CD0BCF1020F31D1A6
:1018D0001DE0BCF1110F17D0BCF1120F2AD119E095
:1018E000B8F5881F19D006DCB8F5803F15D0B8F5DB
:1018F000801F1FD111E0B8F5001F0ED0B8F5041FEE
:1019000018D10AE0CB6815E0CB681B1D12E0CB684C
:1019100008330FE0CB680C330CE08B682BB1012B44
:101920004FF0080303D0456104E0042302E00561A1
:1019300000E00023FF2A01D8064601E000F104067A
:101940004FEA840501D9A5F12005D6F8008007FAF1
:1019500005FC28EA0C0803FA05F548EA0508C6F86C
:1019600000804D68ED0062D5374DAE6946F0010646
:10197000AE61AD6924F0030605F001050095334D15
:1019800006EB050CDCF80850A607360F07FA06F838
:1019900025EA0805DFF8B880404503D14FF000087C
:1019A00017E044E0DFF8AC80404502D14FF0010879
:1019B0000FE0DFF8A480404502D14FF0020808E0B4
:1019C000DFF89880404502D14FF0030801E04FF066
:1019D000040808FA06F848EA0508CCF808804D68BB
:1019E000D9F80060ED034D4601D5164300E096435B
:1019F0002E604D68DAF80060AD03554601D51643F8
:101A000000E096432E604D68DBF80060ED025D4615
:101A100001D5164300E096432E604D68DEF8006065
:101A2000AD02754601D5164300E096432E60641C56
:101A30000D682A46E5407FF431AFBDE8F88F00001D
:101A4000000401400000111000100240000001409D
:101A500000080140000C014000100140001401404A
:101A6000C26821EA02030A4043EA02410161704769
:101A70000AB1016170470904FBE700000148806872
:101A8000704700001C000020024881680278114461
:101A9000816070471C00002010B5032000F074F82E
:101AA000002000F005F800F023F8002010BD000031
:101AB00070B50D4D04464FF47A712878B1FBF0F003
:101AC0000A490968B1FBF0F000F0C6FB48B9102CD8
:101AD00007D200222146501E00F036F800206C602C
:101AE00070BD012070BD00001C00002028000020F7
:101AF0000C4808B5816941F001018161816901F0FB
:101B000001010091C16941F08051C161C06900F0DB
:101B1000805000900448416821F0E06141F000717C
:101B2000416008BD0010024000000140002809DBB0
:101B300000F01F02012191404009800000F1E020E7
:101B4000C0F8001170470000F0B40E4B1B680C4643
:101B5000C3F30223C3F10705042D00D90425191D81
:101B6000072901D2002300E0DB1E012606FA05F159
:101B7000491E214099409E40761E16403143F0BCDC
:101B800002F09CBA0CED00E0064900F0070208687C
:101B90004FF6FF03184040EA0220034A1043086052
:101BA000704700000CED00E00000FA0510B529A414
:101BB00001461DCC86B08DE81D002AA02A4C006885
:101BC00004900020012923D002293AD010291DD1E8
:101BD00061682268D20119D5C1F38342C9031DF897
:101BE000020009D5616804AAC1F34041515C1F4A53
:101BF000B2FBF1F1484301E01D49484361684902E5
:101C000004D440005FF00301B0FBF1F006B010BD5A
:101C1000226AC2F30121012903D1920701D5C80329
:101C2000F4E7022905D1626A920702D549F64040DD
:101C3000ECE70329EAD121688903E7D54FF2244074
:101C4000E4E700F033F96168C1F38131491C4900D0
:101C5000DAE7000002030405060708090A0B0C0D69
:101C60000E0F1010010200000010024000127A0056
:101C700000093D002DE9F84305460078354CC007C2
:101C800054D0E0690026C00008D4E06940F08050DC
:101C9000E061E069012600F0805000902E48016864
:101CA000C90512D40168804641F480710160FFF7D4
:101CB000E5FE074605E000BFFFF7E0FEC01B642815
:101CC00023D8D8F80000C005F6D5206A10F440707B
:101CD00021D0A98801F4407181421CD0206A1F499B
:101CE000012220F440700A6000220A602062C007CE
:101CF00011D0FFF7C3FE074641F2883808E000BF65
:101D0000FFF7BCFEC11B414502D90320BDE8F883A3
:101D1000206A8007F4D5206A696820F4407008437F
:101D200020621EB1E06920F08050E06128788007D1
:101D300005D56068A96820F44040084360602878B1
:101D4000C00605D56068E96820F48000084360603B
:101D50000020DBE7001002400070004040044242D7
:101D60002DE9F0470F46050061D0434E306800F082
:101D70000700B84209D2306820F0070038433060CD
:101D8000306800F00700B84251D128683B4C810709
:101D900012D5400703D5606840F4E06060602878A1
:101DA000000703D5606840F4605060606068A9680F
:101DB00020F0F000084360602878C00728D06868E9
:101DC000012810D02168022810D0890700292EDAB6
:101DD000616821F0030101436160FFF74FFE804617
:101DE00041F288390DE021688903EFE78901EDE7C9
:101DF000FFF744FEA0EB0801494502D90320BDE8E6
:101E0000F0876068696800F00C00B0EB810FEFD1DB
:101E1000306800F00700B8420BD9306820F00700A6
:101E200038433060306800F00700B84201D001202C
:101E3000E5E72878400705D56068E96820F4E060A8
:101E4000084360602878000706D56068296920F497
:101E5000605040EAC100606000F038F86168084AEC
:101E6000C1F30311515CC840064908600648006888
:101E7000FFF71EFE0020C2E70020024000100240D3
:101E800038450008280000202000002004480549AB
:101E900000684968044AC1F30221515CC840704798
:101EA0002800002000100240484500080448054969
:101EB00000684968044AC1F3C221515CC8407047B8
:101EC00028000020001002404845000812A185B0FB
:101ED0000FC98DE80F0014A0144A006804905168DF
:101EE000134801F00C03042B10D0082B0ED1C1F3C2
:101EF0008343C9031DF803000AD5516804AAC1F33E
:101F00004041515C0A4A5043B0FBF1F005B07047C4
:101F100008494843FAE700000203040506070809D8
:101F20000A0B0C0D0E0F10100102000000100240F1
:101F300000127A0000093D002DE9F84F040070D02E
:101F40002078C04DC00749D06868C0F381000128DF
:101F500007D06868C0F38100022809D16868C0030F
:101F600006D52868800339D560680028E7D035E0B9
:101F70006068B0F5803F0BD010B1B0F5A02F11D044
:101F8000286820F480302860286820F4802002E04F
:101F9000286840F480302860606890B1FFF76EFDDB
:101FA00006460AE0286840F480202860F0E700BF79
:101FB000FFF764FD801B642873D828688003F7D579
:101FC0000CE0FFF75BFD064605E000BFFFF756FD9E
:101FD000801B6428F0D828688003F7D420789A4EB4
:101FE00080074FF001094FF0000839D5686810F0FC
:101FF0000C0F07D06868C0F38100022809D1686817
:10200000C00306D42868800714D52069012808D1A8
:1020100010E02069B0B1C6F80090FFF72FFD074629
:1020200005E00AE1FFF72AFDC01B0228C4D8286892
:102030008007F7D52868616920F0F80040EAC10000
:1020400028600DE0C6F80080FFF718FD074604E0A1
:10205000FFF714FDC01B022823D828688007F7D497
:10206000207800072CD57948A169D9B1C0F8009033
:10207000FFF704FD074604E0FFF700FDC01B022840
:102080000FD8686A8007F7D571484FF4FA51006895
:10209000B0FBF1F0009000BF0098411E0091FAD211
:1020A0000EE080E0C0F80080FFF7E8FC074604E09F
:1020B000FFF7E4FCC01B022875D8686A8007F7D4D4
:1020C0002078400760D5E8690027C00008D4E86997
:1020D00040F08050E861E869012700F080500090EE
:1020E0005C480168C90513D40168834641F48071D6
:1020F0000160FFF7C3FC824606E000BFFFF7BEFCAD
:10210000A0EB0A0064284ED8DBF80000C005F5D526
:10211000E06801280AD008B1052813D0286A20F009
:1021200001002862286A20F0040002E0286A40F0DA
:1021300001002862E06841F2883B98B1FFF79EFCFD
:1021400082460BE0286A40F004002862EEE700BFF8
:10215000FFF794FCA0EB0A0159455AD8286A80077A
:10216000F6D50CE0FFF78AFC824605E0FFF786FC17
:10217000A0EB0A0159454CD8286A8007F6D41FB154
:10218000E86920F08050E861E06988B36968C1F3CC
:102190008101022944D00228C6F8608004D0FFF7EC
:1021A0006DFC044638E034E0FFF768FC074604E0C5
:1021B000FFF764FCC01B02282BD828688001F7D4E5
:1021C000206AB0F5803F05D16868A16820F400302E
:1021D00008436860D4E908010843696821F4741170
:1021E00008436860C6F86090FFF748FC044606E0C4
:1021F00025E000BFFFF742FC001B022809D8286831
:102200008001F7D51BE000BFFFF738FC001B022858
:1022100002D90320BDE8F88F28688001F4D40EE0CD
:102220000128F7D06868226A00F48031914204D115
:10223000616A00F47010884201D00120EAE70020B2
:10224000E8E70000001002400000424280044242E1
:10225000280000200070004010B5401EB0F1807FC3
:1022600001D3012010BD4FF0E02460610F21601701
:1022700001F024FF0020A06107202061002010BD94
:1022800010B590F83C20012A22D0012280F83C2091
:10229000CA688C6822F4407222434C6822F480623F
:1022A00022430C6822F4006222430C6922F480521B
:1022B00022434C6922F400522243C969002322F4CC
:1022C00080420A4301684A6480F83C30002010BD17
:1022D000022010BD70B590F83C20012A26D00124C0
:1022E00080F83C40022280F83D2003685A689D68CF
:1022F00022F070060A6832435A600D4B02689A4217
:1023000008D0B2F1804F05D00A4B9A4202D00A4B56
:102310009A4204D1496825F080031943916080F8FE
:102320003D40002180F83C10084670BD022070BD81
:10233000002C0140000400400008004010B5044695
:10234000022249B104290ED0082913D094F845007F
:10235000012816D0012010BD94F842000128F9D1BF
:1023600084F842200FE094F843000128F2D184F869
:10237000432008E094F844000128EBD184F844207D
:1023800001E084F845200422206801F0D0FA20689A
:10239000416C41F4004141640B492068884208D0F7
:1023A000B0F1804F05D00949884202D008498842DF
:1023B00004D1816801F00701062903D0016841F0CA
:1023C00001010160002010BD002C0140000400400C
:1023D0000008004000B585B00021009101910291F4
:1023E0000391154B0268154802219A420ED1826969
:1023F00042F0080282618069039100F008000490B5
:102400008803CDE9000169460D4810E00D4B9A4262
:102410000FD1826942F0040282618069039100F069
:10242000040004904020CDE9000169460648FFF70A
:1024300027FA05B000BD0000002C0140001002404A
:10244000000C0140000400400008014070B5044643
:1024500090F83C000D4601280AD0012084F83C0089
:1024600042B1042A18D0082A2AD00C2A4DD139E0CA
:10247000022070BD206801F067FA2068816941F090
:10248000080181612068816921F00401816120686F
:1024900081692A69114311E0206801F07DFA206802
:1024A000816941F4006181612068816921F4806162
:1024B0008161206881692A6941EA0221816124E001
:1024C000206801F095FA2068C16941F00801C161F6
:1024D0002068C16921F00401C1612068C1692A69CD
:1024E000114311E0206801F0AFFA2068C16941F49E
:1024F0000061C1612068C16921F48061C161206807
:10250000C1692A6941EA0221C161002084F83C00C6
:1025100070BD10B5040003D094F83D0010B107E081
:10252000012010BD002084F83C00204600F01EF879
:10253000022084F83D00211D206801F0B5F901203A
:1025400084F8460084F83E0084F83F0084F8400098
:1025500084F8410084F8420084F8430084F8440081
:1025600084F8450084F83D00002010BD08B50C4AF1
:1025700001680C48914207D1816941F40061816191
:10258000806900F4006009E0074A914207D1C169FF
:1025900041F00201C161C06900F00200009008BD75
:1025A000002C0140001002400004004010B5044619
:1025B000022249B104290ED0082913D094F8410011
:1025C000012816D0012010BD94F83E000128F9D151
:1025D00084F83E200FE094F83F000128F2D184F8FF
:1025E0003F2008E094F840000128EBD184F8402017
:1025F00001E084F841200122206801F08BF90F49A5
:102600002068884203D1426C42F400424264206850
:10261000884208D0B0F1804F05D00949884202D0E5
:102620000849884204D1816801F00701062903D0D6
:10263000016841F001010160002010BD002C014043
:10264000000400400008004070477047F8B5026879
:1026500004461068D168536910F00F0F4FF0000561
:1026600053D003F0010601F4907737435FD0C207DF
:1026700005D0CA0503D5226C42F00102226442074C
:1026800005D5DA0703D0226C42F0020222648207E9
:1026900005D5DA0703D0226C42F004022264020757
:1026A00007D501F02002324303D0226C42F0080229
:1026B0002264226C002A34D0800604D5880602D514
:1026C000204601F0A7FB20684069216CC0F3801010
:1026D000090700D430B3204601F084FB206841692B
:1026E00049061BD5416921F040014161A06BA8B1A9
:1026F00058494163A06BFEF755FF002811D0A06B2D
:10270000416B01B0BDE8F040084783060FD58B064A
:102710000DD52046BDE8F84001F07CBB2046FFF710
:1027200094FFF8BD2046FFF790FF2564F8BD266BA7
:102730002023012E52D1C60650D5CE064ED51068A4
:1027400050680090506940062AD5A16B086840681F
:102750000004000CEAD0A68D8642E7D9E08588699E
:10276000202818D0D06820F48070D060206841699B
:1027700021F0010141612068416921F0400141617E
:1027800084F83E3025632068C16821F01001C160E3
:10279000A06BFEF7E3FEA08DE18D401A81B219E037
:1027A000A08DE18D401A81B2E08D0028BED00029B5
:1027B000BCD0D06820F49070D0602068426922F0CC
:1027C0000102426184F83E3025632068C26822F02D
:1027D0001002C2602046FFF737FFF8BD05062BD573
:1027E0000D0629D594F83D002128F6D1A068B0F552
:1027F000805F01D12069B0B1206A411C216221684B
:1028000000784860E08C401E0004000CE084E4D1B5
:102810002068C16821F08001C1602068C16841F072
:102820004001C160F8BD206A0088C0F30800506014
:10283000206A801C2062E5E74006F3D54806F1D502
:10284000D168204621F04001D16084F83D3000F08D
:102850001CF9F8BDD53D000870B5040004D094F80B
:102860003D00002510B106E0012070BD84F83C5009
:10287000204600F023F8242084F83D002068C16839
:1028800021F40051C160204601F020FB206801695D
:1028900021F4904101612068416921F02A014161E0
:1028A0002068C16841F40051C1602564202084F88B
:1028B0003D0084F83E00002070BD000070B586B079
:1028C0000024009401940294039403682B482A4E38
:1028D000022103220515B34229D1836943F48043C1
:1028E0008361836903F480430493836943F00403A1
:1028F00083618069224E00F0040004900802CDE953
:102900000001039269463046FEF7BAFFCDE9005454
:10291000694630460294FEF7B3FF002201212520CC
:10292000FFF712F92520FFF701F906B070BD154E2B
:10293000B342FAD1C36943F48023C361C36903F48A
:1029400080230493836943F0080383618069CDE9A0
:10295000005100F00800CDE903200B4D69462846E0
:10296000FEF78EFFE814CDE900046946284602947C
:10297000FEF786FFD9E70000003801400010024052
:102980000008014000480040000C014090F83E3033
:10299000202B0ED159B152B190F83C30012B08D008
:1029A000012380F83C300023036301F0EBBA0120DF
:1029B0007047022070470000054810B5007801F00C
:1029C0003DFCBDE81040012201490248FFF7DEBF8F
:1029D00018000020B00600202DE9F843044690F8C6
:1029E0003D001F4616460D4620284CD1C5B1BEB14C
:1029F00094F83C00012846D0012084F83C004FF0B8
:102A00000008C4F84080212084F83D00FFF736F824
:102A1000A6848146E684A068B0F5805F03D004E018
:102A20000120BDE8F883206928B12E465FF000053B
:102A300084F83C800EE00026FAE78021204601F071
:102A4000BCFAA0B9AEB116F8010B21684860E08C61
:102A5000401EE084E08C4B464FF0000200970028B7
:102A6000EBD14FF04001204601F0A7FA30B103202E
:102A7000D7E735F8020BC0F30800E6E7202084F81A
:102A80003D000020CDE70220CBE77047FEE70000C5
:102A90001CB50AA2D2E90012CDE9001240B900200B
:102AA0008DF8050099208DF80600CB208DF80700E1
:102AB0000821684600F008FC1CBD00000106000566
:102AC0000001580B70B51A4C0D46B0B13135A570E8
:102AD000A07120786178E2780844A1781144084414
:102AE0002179084461790844A1790844E071BDE87E
:102AF000704008210E4800F0E7BB1320A0704FF093
:102B000003002DB1FF212154401C0728FBDB04E00A
:102B100000212154401C0728FBDB0126B1B22A46C4
:102B2000032000F092FC761C212EF7DBD1E7000099
:102B30004C000020FEB5002416480094019414496E
:102B400002940160891581600125057304750226D0
:102B500006614FF460214460C161FEF73BFA08B1A1
:102B6000FEF764F805200094CDE901506946094854
:102B7000FEF720F908B1FEF759F8CDE9005669468D
:102B80000448FEF717F9002801D0FEF74FF8FEBD04
:102B9000002401406C0500200F4810B50D4901606C
:102BA0001821416000214FF400328160C0E9031216
:102BB000D2004261017641768176C1760177417714
:102BC000FEF7D0FB002803D0BDE81040FEF72EB87A
:102BD00010BD000000640040F8050020094808B559
:102BE000416941F0010141614069002200F00100AA
:102BF000009011460B20FEF7A7FFBDE808400B2010
:102C0000FEF794BF00100240F0B585B000242848BC
:102C10000094019402940394816941F01001816150
:102C2000816901F010010491816941F02001816105
:102C3000816901F020010491816941F00401816101
:102C4000816901F004010491816941F00801816109
:102C50008069184F00F0080004900122FF213846D7
:102C6000FEF706FF802002258DE8310069461248F4
:102C7000FEF706FEE3200126CDE900066946384648
:102C8000CDE90245FEF7FCFD1C20CDE90006CDE9AB
:102C9000026569463846FEF7F3FDE802CDE9000417
:102CA000694638460294FEF7EBFD05B0F0BD000022
:102CB00000100240000C01400008014010B592B025
:102CC00000240F941C2108A81094FDF769FB202113
:102CD0006846FDF765FB22482049016040F2AF419C
:102CE000C0E901144EF66021C0E903144461846117
:102CF000FFF70FFC08B1FDF799FF0F940FA91848D3
:102D00001094FFF7E7FA08B1FDF790FF60200890F4
:102D100047F23050CDE909040B940C940D9408222D
:102D200008A90F480E94FFF791FB08B1FDF77EFF4D
:102D300000944FF40050CDE90440029401940394B0
:102D4000694607480794FFF79BFA08B1FDF76EFF45
:102D50000348FFF73FFB12B010BD0000002C0140FC
:102D60002006002010B58AB0002407941C21684674
:102D70000894FDF715FB18481649016040F2AF4171
:102D8000C0E901144EF66021C0E903148461FFF725
:102D9000C0FB08B1FDF74AFF079407A90E48089445
:102DA000FFF798FA08B1FDF741FF6020009040F668
:102DB000B830CDE901040022694607480494FFF7C2
:102DC00045FB08B1FDF732FF0348FFF703FB0AB0EC
:102DD00010BD000000040040680600200E4810B539
:102DE0000C4901604FF4E1314160002181600C2207
:102DF000C160C0E904128161C161FFF72DFD08B116
:102E0000FDF714FFBDE81040012204490248FFF716
:102E1000BDBD000000380140B006002018000020B1
:102E20000C4810B50A4901604FF416514160002169
:102E300081600C22C160C0E904128161C161FFF7A9
:102E40000BFD002803D0BDE81040FDF7EFBE10BD1C
:102E500000480040F4060020FEE7FEE72DE9F047B9
:102E60003E4F81463E4E7880A1F580700C469046DC
:102E70004FF0020AB13805D0652C14D0B4F5487F64
:102E80004FD013E011460020FFF71CFE5FF0010554
:102E900005F1080081B24246788800F0D6FA6D1C30
:102EA000112DF5DB02E0B8F1010F37D000203070B2
:102EB000B4F54A7F38D0A4F13300092803D2401C6E
:102EC000C0B2FDF7D1FEA4F13D00092803D2401C99
:102ED000C0B2FDF741FEA4F14700092803D2401C0F
:102EE000C0B2FDF7DDFEA4F15100092803D2401C59
:102EF000C0B2FDF79DFE772C1ED0A4F11A00492820
:102F000000D8BC80B9F1030F1AD0601E07281DD865
:102F1000E0B24146BDE8F04701F08AB801203070C8
:102F2000D1E786F800A0CEE7B8F1000F02D086F80E
:102F300000A0E7E73070E5E74046FFF7A9FDE1E7CD
:102F4000E0B24146BDE8F047FFF7BCBDA4F109007F
:102F5000102801D2083CF3E7BDE8F0872C000020E0
:102F60000000002010B5702911D0D42914D0D72921
:102F70001DD0DA2924D0A2294DD0A62906D1434854
:102F8000002A75D0012A01D10221017010BDBDE8CF
:102F90001040901D00F0B8BA32B1012AF6D1FA20E3
:102FA000BDE81040FDF760BD4FF4FA70F8E738480F
:102FB00022B1012AEAD10421816010BD0021FBE782
:102FC000344892B1012A14D0022A17D0032A19D00A
:102FD000042A1CD0052AF0D12F4930A20160D1214A
:102FE000BDE81040022000F0F3BA2F492FA2016083
:102FF000F5E740F2136130A20160F0E7304931A2F9
:103000000160ECE7244932A20D390160E7E733495A
:1030100033A20160E3E7BAB1012A1BD0022A28D00B
:10302000032ACAD100211D20FFF74CFD00211E20DC
:10303000FFF748FD00211F20FFF744FD0121BDE8F7
:1030400010402020FFF73EBD01211D20FFF73AFD73
:10305000002104E000211D20FFF734FD01211E2086
:10306000FFF730FD00211F20FFF72CFD0021E6E7D0
:1030700009E000211D20FFF725FD00211E20FFF79C
:1030800021FD0121EFE701217FE700002C00002056
:10309000E0050020A40000209A10F81031304638D6
:1030A00031303941000000000004F00C304346305C
:1030B0003034303000000000B1B1C6FB363133008F
:1030C00000EFFE183138464545463030000000001C
:1030D00031304638313038440000000000EEFE1830
:1030E00031384645454530300000000070B5144683
:1030F0000D46334A33A12046FDF78EF8304A32A1FF
:10310000121D2046FDF788F82D4C30480C3C40F24B
:10311000C621D12D1AD0C92D1CD0CA2D1ED0CB2D21
:1031200020D0CC2D22D0CD2D24D0CE2D26D0CF2DE9
:1031300028D0D02D2AD0A42D2CD0A82D30D0A92D28
:1031400035D08D4201D1A089E08070BD2169C0F8E1
:10315000581270BD217C80F85C1270BD217C80F813
:103160005D1270BD217C80F85E1270BD217C80F8FC
:103170005F1270BD217C80F8601270BD217C80F8E8
:10318000611270BD217C80F8621270BD217C80F8D4
:10319000631270BDA089BDE8704080B2FDF713BD19
:1031A000E06801F053F960610146627802E0227B39
:1031B000627061692078BDE8704000F009B80000D5
:1031C00038000020256C6400256C7800A4000020E5
:1031D00070B5044615460F4801F056F801F016F98F
:1031E00081B2642201FB05F0B0FBF2F082B2012C47
:1031F00008D0022C05D108480368D962C160006874
:10320000426370BD044848380368D962C1600068F1
:10321000C26370BD00606A476806002010B50821CF
:103220000448FFF78BF803480021BDE81040483000
:10323000FFF7BCB9200600207047000030B4B0F89A
:10324000031042784CBAB0F805108578C37949BAB2
:103250000D2A14DD0F2A12D0552A10D0B12A0ED112
:10326000012D0AD0103B0B2B09D2DFE803F00A0F27
:10327000080808080808080815000A48448030BCF7
:103280007047427A204630BCFFF7E8BD00F10802E3
:10329000204630BCFFF72ABF437A027A204630BC72
:1032A000FFF760BE2C00002010B5064C01F0E6F8D8
:1032B000214600F0E9FF01463222BDE8104001201E
:1032C000FFF786BF0000DA4270B50C4605460021C4
:1032D000032000F0ADFE0121042000F0A9FE6423CC
:1032E000224629460648FFF777FB0021042000F01C
:1032F0009FFEBDE870400121032000F099BE000050
:10330000F406002010B5064C01F0B8F8214600F094
:10331000BBFF01463222BDE810400220FFF758BF34
:10332000CDCC4C3F704700002DE9F041254E40F2D6
:10333000711739460320326800F0B1F832684FF453
:10334000C875B2FBF5F0341F217888420BD0B2FB70
:10335000F5F01D4928300880B2FBF5F020703946A1
:10336000032000F09CF87068A84204D26078401CEA
:103370006070012200E00022FC21032000F065F8CB
:103380007068A0F5FA60A84205D2607818B1401EB6
:103390006070012200E00022FB21032000F055F8BC
:1033A0007068A0F51660A84204D20120FFF770FBF8
:1033B000012200E00022BDE8F041FA21032000F0E4
:1033C00044B80000100000203000002010B540215B
:1033D0000F4800F0F7FE0F490881010016D00C4895
:1033E0004078072804D0BDE810400948FFF726BF01
:1033F00071B6BFF34F8F08480168084A01F4E061D5
:1034000011430160BFF34F8F00BFFDE710BD000007
:10341000380700202C0000200CED00E00400FA0525
:1034200001B50A23012269460148FFF7D5FA08BD14
:10343000B006002010B5044603E000BFFFF7F0FF20
:10344000641C20780028F9D110BD70B505461646D9
:103450000C46EE20FFF7E4FFB120FFF7E1FF10205C
:10346000FFF7DEFF280AFFF7DBFFE8B2FFF7D8FF20
:10347000200AFFF7D5FFE0B2FFF7D2FF3046FFF793
:10348000CFFFFF20FFF7CCFFFC20FFF7C9FFFF2095
:10349000FFF7C6FFBDE87040FF20FFF7C1BF70B562
:1034A000064614460D46EE20FFF7BAFFB120FFF79F
:1034B000B7FF1020FFF7B4FF300AFFF7B1FFF0B2FB
:1034C000FFF7AEFF280AFFF7ABFFE8B2FFF7A8FF50
:1034D000200EFFF7A5FFC4F30740FFF7A1FFC4F3D9
:1034E0000720FFF79DFFE0B2FFF79AFFFF20FFF7ED
:1034F00097FFFC20FFF794FFFF20FFF791FFBDE847
:103500007040FF20FFF78CBF10B50446EE20FFF798
:1035100087FFB120FFF784FF0020FFF781FF200A1B
:10352000FFF77EFFE0B2FFF77BFFFF20FFF778FF9A
:10353000FC20FFF775FFFF20FFF772FFBDE810408A
:10354000FF20FFF76DBF2DE9F04106461F461446E8
:103550000D46EE20DDF81880FFF762FFB120FFF77F
:103560005FFF0720FFF75CFF300AFFF759FFF0B25B
:10357000FFF756FF280AFFF753FFE8B2FFF750FFA7
:103580000FB1012000E00020FFF74AFF08F00F0014
:1035900040F08000FFF744FF200EFFF741FFC4F327
:1035A0000740FFF73DFFC4F30720FFF739FFE0B204
:1035B000FFF736FFFF20FFF733FFFC20FFF730FF58
:1035C000FF20FFF72DFFBDE8F041FF20FFF728BFE8
:1035D00070B5054616460C46EE20FFF721FFB120D8
:1035E000FFF71EFF1020FFF71BFF280AFFF718FF49
:1035F000E8B2FFF715FF200AFFF712FFE0B2FFF76E
:103600000FFF3046FFF716FFFF20FFF709FFFC20F2
:10361000FFF706FFFF20FFF703FFBDE87040FF2024
:10362000FFF7FEBE2DE9F84F0120FFF731FA052024
:10363000FDF71AFB07244FF49675A0B2FFF764FF5D
:103640002846FEF70BF9641C112CF6DB0C20FFF763
:103650005BFF01244FF4FA75E0B2012100F0E8FCB1
:10366000A1B201220C20FFF7F0FEA9462846FEF782
:10367000F5F8641C092CEFDB0220FFF745FF55A28B
:1036800081210220FFF7A4FF55A2D1210220FFF7DC
:103690009FFF0025DFF8548145F6C05A4FEA050424
:1036A000C5F30726524888F86062EFB288F85F7267
:1036B00007C8FDF71DFA00233246CD2102200094F1
:1036C000FFF741FF00233A46CC2102200094FFF788
:1036D0003AFF6D1D5545E3DB46A281210220FFF72D
:1036E00077FF47A2D1210220FFF772FF50254646FF
:1036F0003F4886F84C53F03007C8FDF7F9F96420CD
:10370000FEF7ACF800232A46C92102200094FFF7F7
:103710001AFF6D1CA02DEBDB3CA281210220FFF7DC
:1037200057FF3DA2D1210220FFF752FF5FF00005B5
:103730003C4886F8C75307C8FDF7DAF900232A4644
:10374000CC2102200094FFF7FEFE1420FEF786F83D
:103750006D1CFA2DECDB0320FFF7D6FE0520FDF7EC
:10376000FBF901244D46E0B20121FFF7ABF9A1B20C
:1037700001220320FFF769FE2846FEF76FF8641C5C
:10378000112CF0DB0020FFF7BFFE0124A1B20022C4
:103790000C20FFF75AFE641C092CF7DB0120FFF711
:1037A000B3FE0024A1B200220320FFF74EFE641CEA
:1037B000112CF7DB00224FF448710120FFF745FE82
:1037C0000020FFF765F9BDE8F84F00210846FFF734
:1037D00079B90000D3CDBBFAD7AACBD9000000003D
:1037E000304346303034303000000000A400002068
:1037F000FC020020C0E4C8B4CBAECEC20000000082
:10380000313846454545303000000000BBFAD3CD85
:10381000D1B9C1A6000000003138464545463030D8
:103820000000000064040020FEF72EB930B593B00C
:1038300028216846FCF7B4FD14210AA8FCF7B0FD66
:10384000002501200F9510951195010412958DE822
:10385000230004904FF4E010CDE9081002240794EF
:103860006846FEF769FB08B172B6FEE70AA90F20A9
:1038700081E831004FF48060CDE90D0502210AA8EE
:10388000FEF76EFA08B172B6FEE74FF400401190F1
:103890000F940FA8FEF7EEF9002801D072B6FEE7EC
:1038A00013B030BD70470000F0B50268164B174CDE
:1038B000174D4FF08047984205D0B84203D0A04240
:1038C00001D0A84203D122F070064A6832439842E0
:1038D00005D0B84203D0A04201D0A84203D122F4BF
:1038E0004074CA6822434C6922F08002224302607D
:1038F0008A68C2620A688262984201D109690163DA
:1039000001214161F0BD0000002C01400004004095
:103910000008004010B501F01F030121046A99401E
:103920008C430462016A9A401143016210BD10B5D4
:1039300001F01F030421046A99408C430462016A68
:103940009A401143016210BD30B5026A22F00102B3
:103950000262026A4368846924F073050C682C4390
:1039600022F002058A682A430A4DA8420BD122F0B0
:103970000805CA6823F440732A434D6922F0040203
:103980001D438B692B434360846149684163026234
:1039900030BD0000002C014030B5026A22F0100258
:1039A0000262026A436884690D6824F4E64444EACA
:1039B00005248D6822F0200242EA05120B4DA84230
:1039C0000ED1CD6822F0800242EA05124D6923F43F
:1039D000406343EA85038D6922F0400243EA850390
:1039E0004360846149688163026230BD002C0140FC
:1039F00030B5026A22F480720262036A4268C469C6
:103A000023F4007324F073050C682C438D6843EA9B
:103A100005230C4DA8420ED1CD6823F4006343EA80
:103A200005234D6922F4405242EA05128D6923F4C0
:103A3000806342EA05124260C4614968C16303625F
:103A400030BD0000002C014030B5026A22F48052E3
:103A50000262046A4268C3690D6823F4E64343EADC
:103A600005238D6824F4005444EA0534064DA84229
:103A700004D14D6922F4804242EA85124260C3615A
:103A800049680164046230BD002C01402DE9F34F08
:103A900081B00C004FF4807A13D0B54E04EB440093
:103AA000A4F1090906EB80074FF00008012C15D09E
:103AB000022C32D0032C42D0042C5DD0052C7BD0BC
:103AC00057E0ACA251460198FFF782FD0198FFF73D
:103AD0001BFDBDE8FE4F0020FEF7DABFA7A251464E
:103AE0000198FFF775FD0120FEF7D2FF0025A9B26E
:103AF00000220198FFF7A9FC0A20FDF7AFFE05EBB5
:103B0000D57020F00100281AC2B277210198FFF782
:103B10009CFC6D1C642DEADBB1E09AA25146019831
:103B2000FFF756FD01210020FEF7CCFF4FF47A701D
:103B3000FDF794FE00210846FEF7C4FF77E093A24C
:103B400051460198FFF744FD00254FF4967B642110
:103B500005FB01F0FFF7A8FB05F1280081B2012267
:103B60000198FFF772FC5846FDF778FE6D1C0A2D90
:103B7000EDDB062C3FD01BE086A251460198FFF7F3
:103B800027FD00254FF00A0B844886F8605207C8CD
:103B9000FCF7AEFF1420FDF761FE95FBFBF028302B
:103BA00081B200220198FFF750FC6D1C642DEBDB05
:103BB000072C7DD01CE0FFE779A251460198FFF762
:103BC00007FD0125E8B2FDF74FF805F1320081B29B
:103BD00001220198FFF739FC05EB450006EB800058
:103BE00000F5167007C8FCF7A3FFAD1C0A2DE9DB32
:103BF000082C7DD01BE06CA251460198FFF7E8FC31
:103C00000125E8B2FCF7A8FF05F13C0081B20122D2
:103C10000198FFF71AFC05EB450006EB800000F564
:103C2000347007C8FCF784FFAD1C0A2DE9DBB9F13D
:103C3000100F24D2002322465146CDF8008001986F
:103C4000FFF781FCA4F10800C0B20121FEF73AFFA2
:103C5000012221460198FFF7F8FB4FF4FA70FDF7B7
:103C6000FDFDE01FC0B20021FEF72CFF97E8070022
:103C7000FCF75EFF0022611C0198FFF7E6FBA4F150
:103C8000190005281AD2002322465146CDF800809B
:103C90000198FFF758FC3220FDF7E0FD97E8070098
:103CA000FCF746FF012221460198FFF7CEFB00E01A
:103CB0001FE00022611C0198FFF7C7FB1E2C54D1A6
:103CC0000020FEF7E5FE00210846FEF7FBFE00227D
:103CD00065210198FFF7B9FB354900245546A1F845
:103CE0000080344981F80080E00736D032A235E008
:103CF0001CE032A251460198FFF76AFC0125E8B2A8
:103D0000FCF7CEFF05F1460081B201220198FFF7D2
:103D10009CFB05EB450006EB800000F5527007C8E0
:103D2000FCF706FFAD1C0A2DE9DBA8E725A25146EA
:103D30000198FFF74DFC0125E8B2FCF779FF6420FC
:103D4000FDF78CFD05F1500081B201220198FFF7CB
:103D50007CFBAD1C0A2DEFDB91E71CA229460198E4
:103D6000FFF736FC641C642CBEDBBDE8FE8F000050
:103D7000A4000020B9E9C1E300000000B5E3BBF0F6
:103D800000000000B5C6BCEC00000000C6B5C2CA09
:103D900000000000D7DCCFDF00000000FC020020A4
:103DA000C8BCD3CD00000000CBAECEC200000000E6
:103DB0000D000020000000204F4B0000D3CDD1B9F2
:103DC00000000000C6F8D1B900000000C1BCBAC3B1
:103DD0000000000010B5406A0021C185C184FEF7D3
:103DE00034FC10BD0168CA6822F49072CA60016890
:103DF0004A6922F001024A61016B012904D101687C
:103E0000CA6822F01002CA60202180F83E1000210A
:103E10000163704708B590F83E10222901D00220B6
:103E200008BD82684FF480539A4201D1016921B1E3
:103E3000816A9A421BD04AB10AE00268816A5268DC
:103E4000C2F308020A80816A891C08E0026972B123
:103E50000268526802F07F020A70816A491C81621E
:103E6000C18D491E0904090CC18503D019E00268FF
:103E70005268F1E70168CA6822F02002CA6001684E
:103E8000CA6822F48072CA6001684A6922F001029D
:103E90004A61202180F83E10016B012903D0FEF712
:103EA0008BFD002008BD002101630168CA6822F073
:103EB0001002CA6001680A68D20602D50A68496819
:103EC0000091818DFEF7C0FBEBE7000070B5044662
:103ED00000680169E26821F44051114301612169E0
:103EE000A0680843616908432168CA6841F20C630D
:103EF0009A430243CA6020684169A26921F4407173
:103F0000114341611E492068884202D1FDF7CEFF6E
:103F100001E0FDF7BBFF00EBC00101EB00126068A0
:103F200064218000B2FBF0F3B3FBF1F36FF01806ED
:103F30007343B2FBF0F5B2FBF0F605EB83053223D9
:103F400003EB0515B5FBF1F5B6FBF1F605F0F00551
:103F500005EB0615B2FBF0F6B2FBF0F0B0FBF1F0AA
:103F60006FF01802504306EB800003EB0010B0FB2B
:103F7000F1F0216800F00F002844886070BD000057
:103F80000038014081628285C285002101642222BD
:103F900080F83E2080F83C100168CA6842F48072C4
:103FA000CA6001684A6942F001024A610068C1685A
:103FB00041F02001C160002070472DE9F041984692
:103FC00017460E460446069D1DE0681C1BD02DB109
:103FD000FDF754FDA0EB0800A84214D92068C16881
:103FE00021F4D071C1602068416921F00101416173
:103FF000202084F83D0084F83E00002084F83C0036
:104000000320BDE8F0812068006836EA000004D093
:104010000020B842D9D00020F3E70120F9E70000E2
:104020000148FEF713BB0000B0060020FEE70000C9
:1040300070B51F4A0B460446092820D2DFE800F07D
:1040400005080B0E1114171A1D001A48411416E02A
:104050001046082113E01046042110E0104602210A
:104060000DE0104601210AE01046802107E01046CD
:10407000402104E01046202101E0104610210E4DA1
:104080005BB1012B0ED0022B06D1FDF7E9FC285DB8
:10409000C0F10100C0B2285570BD0022FDF7E8FC58
:1040A0000020F8E70122FDF7E3FC0120F3E7000020
:1040B000000C014000100140600500200907090EB6
:1040C000002804DB00F1E02080F80014704700F0C5
:1040D0000F0000F1E02080F8141D7047FDF7DCFCB4
:1040E000FFF7A4FBFEF790FDFEF778FDFEF754FD09
:1040F000FEF720FDFEF7E2FDFEF770FEFEF790FEF4
:10410000FEF730FE2848FDF7FDF92848FCF7E4FDEE
:10411000022227492548FDF73BF8FFF77FF840F2D8
:10412000DC50FFF7C1F87820FFF7ECF80520FCF72A
:104130009BFD1F4D64261F4C2D1F1F4FDFF87C80F9
:10414000FDF79CFCB0FBF6F106FB1100322801D212
:10415000FFF73CF9FDF792FCB0FBF6F106FB11000E
:10416000322801D1FFF7E0F82878012802D1208811
:10417000401C208020886978884206D0C1B210484F
:104180000078FFF783FC207868702878022801D136
:10419000FFF748FA388800EB400108EB810007C8B8
:1041A000FCF7A6FCCCE70000F80500206C05002019
:1041B000040000200D00002030000020A40000209A
:1041C0002E000020F0B51C4D00273A46194CB5F8DA
:1041D00000C019E0664506D0174A121DB25C761C75
:1041E000C6F309036B8023880BB9EE2A0CD18B42EE
:1041F00002D2C2545B1C2380636842EA032303F5A6
:1042000040366360761C11D06E88ACEB060303F574
:1042100080634FEAE37E03EB9E5E6FF3090EA3EB30
:104220000E031B041B0CD5D10020F0BD2088676055
:104230002780F0BD4400002078070020064910B513
:104240000B884C885A1CC2F30902944202D00C1D00
:1042500018550A8010BD00007807002010B500290D
:104260000AD00878002807D005487844FCF70AFBF4
:10427000002801D0002010BD0248784410BD000085
:1042800006030000FE0200004FF47F0C1CEAD0126F
:104290001EBF1CEAD11392EA0C0F93EA0C0F00F038
:1042A000858090EA010F48BF42F4807240F4000C10
:1042B00041F400002CF07F4120F07F4000B58142A6
:1042C000A2EB03020FF2081CACEB504EC0F1000051
:1042D0009EF800E04FEA4E0E00FB0EFC38BF49008E
:1042E0004FEA2C1C02F5FA020CFB0EF34FEACE1E2D
:1042F0004FEA112C4FEAC1210EEB635E42EB2242E2
:104300000EFB0CFC4FEA1C5300FB03114FEA112C6F
:104310004FEA01310EFB0CFC4FEADC4C00FB0C11A8
:10432000C14228BF09184CEB03335DF804EB10EBD6
:10433000410143EBC250B2F57C0F38BF704729D51D
:1043400012F0F00F1CBF00F1C04000F000407047B9
:10435000008182838485868788898B8C8D8E8F915E
:104360009293959697999A9C9D9FA0A2A3A5A7A882
:10437000AAACAEB0B2B3B5B7B9BCBEC0C2C5C7C9AE
:10438000CCCED1D4D7D9DCDFE2E6E9ECF0F3F7FA12
:10439000FE0000004FEA400C0CF1807CBCF17E4F27
:1043A00028BF7047B0F1C04000F0C1B890EA010FDB
:1043B0000CEAD11348BF42F48072624538BF6345AE
:1043C00007D213F47F0F16D080EA010000F00040FE
:1043D000704710B500F065F8097EFC3E00F005B8A6
:1043E00080EA010000F00040704780EA010000F020
:1043F000004000F09CB812F47F0F04BF02487047E1
:1044000080EA010000F093B80000C07FC10DD1F137
:104410009E0206DB4FEA002343F0004323FA02F03A
:104420007047004207D54FEA4001B1F1FE4F02D27A
:104430004FF00000704710B500F033F84992248027
:10444000002070476FEA20007047000010F0004124
:1044500048BF4042B0FA80F310FA03F2C3F19D0363
:104460000BD051EAC35101EB1220530638BF7047FD
:1044700000F1010008BF20F001007047B0FA80F39E
:1044800010FA03F2C3F19D030AD0D90501EB122003
:10449000530638BF704700F1010008BF20F001004B
:1044A00070470EF1020E2EF0030E5EF8044B24420C
:1044B00004D44FEA4102B2F17F4F11D84FEA4003D2
:1044C000B3F17F4F0CD80ED14FEAD07CB2F17F4FC1
:1044D0000CEB4C0C0CF1020C08BF4CEBD17C04E053
:1044E0004FF0080C01E04FEAD17C0CEB4C0324FAAE
:1044F00003F404F00704B4F1040C06D20EEB840CB0
:10450000BDE810404CF0010C6047DFE80CF00708F4
:1045100002024FF00040A0F5800010BD08464200A6
:1045200018BFD2F1807288BF00F0004010BDFF219B
:1045300041EAD050C00570470000000000000000B4
:104540000102030406070809000000000102030439
:1045500080460008000000206005000028010008D7
:104560005448000860050020800C00008401000809
:104570001001000043000000F8FFFFFF0040404032
:104580004040404040404141414141404040404026
:1045900040404040404040404040404040050202D2
:1045A0000202020202020202020202020220202091
:1045B00020202020202020020202020202029090ED
:1045C00090909090101010101010101010101010EB
:1045D000101010101010101002020202020288883F
:1045E000888888880808080808080808080808084B
:1045F0000808080808080808020202024000000033
:1046000000000000000000000000000000000000AA
:10461000000000000000000000000000000000009A
:10462000000000000000000000000000000000008A
:10463000000000000000000000000000000000007A
:10464000000000000000000000000000000000006A
:10465000000000000000000000000000000000005A
:10466000000000000000000000000000000000004A
:10467000000000000000000000000000000000003A
:10468000011132026204320182102324F413320138
:10469000122DE2648480BB442C550131361565E847
:1046A000036E12501231122A12231A18421A0A4AA1
:1046B000144A01E612871278125A124B1235122848
:1046C00012200A131A1421126412C8100F2C019020
:1046D00001F4015802BC02200384033404F00C33BB
:1046E000DA2E6D21D8FF18A2490C29A6791839B104
:1046F000790C1926790C69248A080C59E769243940
:1047000049F93041CAFF1811ADCAFE184024498347
:10471000490C9AAA0C5ACA0C8ADC24293C910B1326
:104720007CFD0C6B100609890C393F193C59BF49B7
:104730004869C1290C691929486918190CBA02601D
:104740005919796C1910193C692F396C9A660C59F2
:10475000541A19459A2030713A080C13FF6E12034F
:104760004BFFFF0C9AAE0C9A640C9A840C7C560298
:10477000020C7CA502050C2C55020C0C3404F00C28
:104780003B18036F390C8B850F0C8B95170C8B2204
:104790001F0C8BDA2E0C8BD4360C8B803E0C8B20AE
:1047A0004E0C8BC05D0C33866D2C21DAFFD8420590
:1047B000590C9A100C9A200C9A350C9A500C9A723B
:1047C0000C9A880C9AA10C9AEA0C52F53CEEFE1851
:1047D00045590C9A5A0C9A640C9A6E0C82739DFF80
:1047E000FE1878189A820C9A8C0C9A960C82A02B40
:1047F000EFFE849A190C9A320C9A4B0C4987490C9B
:104800009A7D0C4957490C9AAF0C9AC80C9AE10C46
:1048100042FA9312069A080C9A1C0C9A260C9A30AB
:104820000C9A3A0C9A440C9A4E0C9A580C9A620CB8
:104830001CCE190271190441390C9A0A0C9A150CF4
:104840009A200C9A2B0C9A360C9A400C9A4B0C9A84
:04485000560C62FFA1
:04000005080000ED02
:00000001FF
